{
  "contractName": "EVENT",
  "abi": [
    {
      "anonymous": false,
      "inputs": [
        {
          "indexed": true,
          "internalType": "uint256",
          "name": "id",
          "type": "uint256"
        },
        {
          "indexed": true,
          "internalType": "uint256",
          "name": "date",
          "type": "uint256"
        },
        {
          "indexed": false,
          "internalType": "string",
          "name": "value",
          "type": "string"
        }
      ],
      "name": "myEvent",
      "type": "event"
    },
    {
      "constant": false,
      "inputs": [
        {
          "internalType": "string",
          "name": "value",
          "type": "string"
        }
      ],
      "name": "enitEvent",
      "outputs": [],
      "payable": false,
      "stateMutability": "nonpayable",
      "type": "function"
    }
  ],
  "bytecode": "0x608060405234801561001057600080fd5b5061015a806100206000396000f3fe608060405234801561001057600080fd5b506004361061002b5760003560e01c80637668b6e414610030575b600080fd5b6100a76004803603602081101561004657600080fd5b810190808035906020019064010000000081111561006357600080fd5b82018360208201111561007557600080fd5b8035906020019184600183028401116401000000008311171561009757600080fd5b90919293919293905050506100a9565b005b426000547ff4a59c7cf41a9dd90ec4194c394811681ecb62b4fbf3c60b9258615240bb70a4848460405180806020018281038252848482818152602001925080828437600081840152601f19601f820116905080830192505050935050505060405180910390a36000808154809291906001019190505550505056fea265627a7a72315820da56f55b488645a99711cf2b5124174c4ebf54d059284dfedcc92f4056ab92dd64736f6c63430005100032",
  "source": "pragma solidity ^0.5.1;\n// events reading\ncontract EVENT{\n\tevent myEvent (\n\t\tuint indexed id,\n\t\tuint indexed date,\n\t\tstring value\n\t);\n\tuint nextId;\n\n\tfunction enitEvent(string calldata value) external {\n\t\temit myEvent(nextId,now,value);\n\t\tnextId++;\n\t}\n}",
  "sourcePath": "/home/abhishek/web3 tutorials/contracts/event.sol",
  "compiler": {
    "name": "solc",
    "version": "0.5.16+commit.9c3226ce.Emscripten.clang"
  },
  "schemaVersion": "3.2.0",
  "updatedAt": "2020-06-07T03:33:27.379Z",
  "networkType": "ethereum",
  "devdoc": {
    "methods": {}
  },
  "userdoc": {
    "methods": {}
  }
}