{
  "contractName": "testnetConnection",
  "abi": [
    {
      "constant": false,
      "inputs": [
        {
          "internalType": "uint256",
          "name": "_data",
          "type": "uint256"
        }
      ],
      "name": "setData",
      "outputs": [],
      "payable": false,
      "stateMutability": "nonpayable",
      "type": "function"
    },
    {
      "constant": true,
      "inputs": [],
      "name": "getData",
      "outputs": [
        {
          "internalType": "uint256",
          "name": "",
          "type": "uint256"
        }
      ],
      "payable": false,
      "stateMutability": "view",
      "type": "function"
    }
  ],
  "bytecode": "0x608060405234801561001057600080fd5b5060c68061001f6000396000f3fe6080604052348015600f57600080fd5b506004361060325760003560e01c80633bc5de301460375780635b4b73a9146053575b600080fd5b603d607e565b6040518082815260200191505060405180910390f35b607c60048036036020811015606757600080fd5b81019080803590602001909291905050506087565b005b60008054905090565b806000819055505056fea265627a7a72315820680ee148fd929f6e78545eca2240c3f9f44c64b4f5c1021839bbf88e815e03af64736f6c63430005100032",
  "source": "//demo for using testnet KOVAN/ROPSTEN or any other\n\npragma solidity ^0.5.1;\n\ncontract testnetConnection{\n\tuint data;\n\n\tfunction setData(uint _data) external {\n\t\tdata = _data;\n\t}\n\tfunction getData () external view returns(uint) {\n\t\treturn data;\n\t}\n}",
  "sourcePath": "/home/abhishek/web3 tutorials/contracts/testnetConnection.sol",
  "compiler": {
    "name": "solc",
    "version": "0.5.16+commit.9c3226ce.Emscripten.clang"
  },
  "schemaVersion": "3.2.0",
  "updatedAt": "2020-06-07T03:33:27.380Z",
  "networkType": "ethereum",
  "devdoc": {
    "methods": {}
  },
  "userdoc": {
    "methods": {}
  }
}