{
  "contractName": "hashCashBackend",
  "abi": [
    {
      "inputs": [
        {
          "internalType": "contract IERC20",
          "name": "_tokenAddress",
          "type": "address"
        }
      ],
      "stateMutability": "nonpayable",
      "type": "constructor"
    },
    {
      "anonymous": false,
      "inputs": [
        {
          "indexed": false,
          "internalType": "address",
          "name": "from",
          "type": "address"
        },
        {
          "indexed": false,
          "internalType": "uint256",
          "name": "tokenAmount",
          "type": "uint256"
        }
      ],
      "name": "depositEvent",
      "type": "event"
    },
    {
      "anonymous": false,
      "inputs": [
        {
          "indexed": false,
          "internalType": "address",
          "name": "from",
          "type": "address"
        },
        {
          "indexed": false,
          "internalType": "uint256",
          "name": "date",
          "type": "uint256"
        }
      ],
      "name": "heey",
      "type": "event"
    },
    {
      "inputs": [
        {
          "internalType": "address",
          "name": "_userAdd",
          "type": "address"
        }
      ],
      "name": "showTokenBal",
      "outputs": [
        {
          "internalType": "uint256",
          "name": "",
          "type": "uint256"
        }
      ],
      "stateMutability": "view",
      "type": "function",
      "constant": true
    },
    {
      "inputs": [],
      "name": "hey",
      "outputs": [
        {
          "internalType": "string",
          "name": "",
          "type": "string"
        }
      ],
      "stateMutability": "nonpayable",
      "type": "function"
    },
    {
      "inputs": [],
      "name": "thisaddress",
      "outputs": [
        {
          "internalType": "address",
          "name": "",
          "type": "address"
        }
      ],
      "stateMutability": "view",
      "type": "function",
      "constant": true
    },
    {
      "inputs": [
        {
          "internalType": "uint256",
          "name": "_amount",
          "type": "uint256"
        }
      ],
      "name": "app",
      "outputs": [],
      "stateMutability": "nonpayable",
      "type": "function"
    },
    {
      "inputs": [
        {
          "internalType": "address",
          "name": "_userAddress",
          "type": "address"
        },
        {
          "internalType": "uint256",
          "name": "_amount",
          "type": "uint256"
        },
        {
          "internalType": "address",
          "name": "tokenTypeAddress",
          "type": "address"
        }
      ],
      "name": "depositTokens",
      "outputs": [],
      "stateMutability": "nonpayable",
      "type": "function"
    },
    {
      "inputs": [
        {
          "internalType": "uint256",
          "name": "_amount",
          "type": "uint256"
        },
        {
          "internalType": "address",
          "name": "tokenTypeAddress",
          "type": "address"
        }
      ],
      "name": "withdrawToken",
      "outputs": [
        {
          "internalType": "bool",
          "name": "",
          "type": "bool"
        }
      ],
      "stateMutability": "nonpayable",
      "type": "function"
    }
  ],
  "bytecode": "0x608060405234801561001057600080fd5b506040516109583803806109588339818101604052602081101561003357600080fd5b8101908080519060200190929190505050806000806101000a81548173ffffffffffffffffffffffffffffffffffffffff021916908373ffffffffffffffffffffffffffffffffffffffff160217905550506108c4806100946000396000f3fe608060405234801561001057600080fd5b50600436106100625760003560e01c8063298e4f791461006757806333e466ae146100d55780636c762b9514610103578063a1cbe3d81461014d578063bde2b573146101a5578063be4b177214610228575b600080fd5b6100d36004803603606081101561007d57600080fd5b81019080803573ffffffffffffffffffffffffffffffffffffffff16906020019092919080359060200190929190803573ffffffffffffffffffffffffffffffffffffffff16906020019092919050505061028e565b005b610101600480360360208110156100eb57600080fd5b8101908080359060200190929190505050610431565b005b61010b610518565b604051808273ffffffffffffffffffffffffffffffffffffffff1673ffffffffffffffffffffffffffffffffffffffff16815260200191505060405180910390f35b61018f6004803603602081101561016357600080fd5b81019080803573ffffffffffffffffffffffffffffffffffffffff169060200190929190505050610520565b6040518082815260200191505060405180910390f35b6101ad610607565b6040518080602001828103825283818151815260200191508051906020019080838360005b838110156101ed5780820151818401526020810190506101d2565b50505050905090810190601f16801561021a5780820380516001836020036101000a031916815260200191505b509250505060405180910390f35b6102746004803603604081101561023e57600080fd5b8101908080359060200190929190803573ffffffffffffffffffffffffffffffffffffffff1690602001909291905050506106af565b604051808215151515815260200191505060405180910390f35b600061029933610520565b9050828110156102a857600080fd5b6000809054906101000a900473ffffffffffffffffffffffffffffffffffffffff1673ffffffffffffffffffffffffffffffffffffffff166323b872dd3330866040518463ffffffff1660e01b8152600401808473ffffffffffffffffffffffffffffffffffffffff1673ffffffffffffffffffffffffffffffffffffffff1681526020018373ffffffffffffffffffffffffffffffffffffffff1673ffffffffffffffffffffffffffffffffffffffff1681526020018281526020019350505050602060405180830381600087803b15801561038457600080fd5b505af1158015610398573d6000803e3d6000fd5b505050506040513d60208110156103ae57600080fd5b8101908080519060200190929190505050507f47170ad76c9bbdb15dfbafd993321119023982de922af38d00684afaac15b8ea3384604051808373ffffffffffffffffffffffffffffffffffffffff1673ffffffffffffffffffffffffffffffffffffffff1681526020018281526020019250505060405180910390a150505050565b6000809054906101000a900473ffffffffffffffffffffffffffffffffffffffff1673ffffffffffffffffffffffffffffffffffffffff1663095ea7b330836040518363ffffffff1660e01b8152600401808373ffffffffffffffffffffffffffffffffffffffff1673ffffffffffffffffffffffffffffffffffffffff16815260200182815260200192505050602060405180830381600087803b1580156104d957600080fd5b505af11580156104ed573d6000803e3d6000fd5b505050506040513d602081101561050357600080fd5b81019080805190602001909291905050505050565b600030905090565b6000806000809054906101000a900473ffffffffffffffffffffffffffffffffffffffff1673ffffffffffffffffffffffffffffffffffffffff166370a08231846040518263ffffffff1660e01b8152600401808273ffffffffffffffffffffffffffffffffffffffff1673ffffffffffffffffffffffffffffffffffffffff16815260200191505060206040518083038186803b1580156105c157600080fd5b505afa1580156105d5573d6000803e3d6000fd5b505050506040513d60208110156105eb57600080fd5b8101908080519060200190929190505050905080915050919050565b60607f13e6b91c9b2288e1be3ab7628766d36eb493d1e06dff1cc2790210e517e661593342604051808373ffffffffffffffffffffffffffffffffffffffff1673ffffffffffffffffffffffffffffffffffffffff1681526020018281526020019250505060405180910390a16040518060400160405280600381526020017f6865790000000000000000000000000000000000000000000000000000000000815250905090565b600060011515600260003373ffffffffffffffffffffffffffffffffffffffff1673ffffffffffffffffffffffffffffffffffffffff16815260200190815260200160002060008473ffffffffffffffffffffffffffffffffffffffff1673ffffffffffffffffffffffffffffffffffffffff16815260200190815260200160002060009054906101000a900460ff161515141561088357600061075233610520565b90508084111561076157600080fd5b6000809054906101000a900473ffffffffffffffffffffffffffffffffffffffff1673ffffffffffffffffffffffffffffffffffffffff166323b872dd3033876040518463ffffffff1660e01b8152600401808473ffffffffffffffffffffffffffffffffffffffff1673ffffffffffffffffffffffffffffffffffffffff1681526020018373ffffffffffffffffffffffffffffffffffffffff1673ffffffffffffffffffffffffffffffffffffffff1681526020018281526020019350505050602060405180830381600087803b15801561083d57600080fd5b505af1158015610851573d6000803e3d6000fd5b505050506040513d602081101561086757600080fd5b8101908080519060200190929190505050506001915050610888565b600090505b9291505056fea26469706673582212202fe47ac5fb1041f6a844d600d07fe30446b1d96762222949273063ce98c757c864736f6c63430006020033",
  "source": "pragma solidity ^0.6.0;\n\nimport \"@openzeppelin/contracts/token/ERC20/IERC20.sol\";\n\ncontract hashCashBackend {\n\tIERC20 private HCtokenAddress;\n\t//mapping( userAddress => mapping( tokenAddress => value))\n\tmapping(address => mapping(address => uint256)) userDeposits;\n\t//mapping( userAddress => mapping( tokenAddress => boolean))\n\tmapping(address => mapping(address => bool)) userDepositBoolean;\n\tevent depositEvent(address from,uint256 tokenAmount);\n\tevent heey(address from,uint date);\n\tconstructor (IERC20 _tokenAddress) public {\n\t\tHCtokenAddress = _tokenAddress;\n\t}\n\n\n\tfunction showTokenBal(address _userAdd)public view returns(uint256) {\n\t\tuint256 a;\n\t\ta = HCtokenAddress.balanceOf(_userAdd);\n\t\treturn a;\n\t}\n\tfunction hey() public returns(string memory){\n\t\temit heey(msg.sender,now);\n\n\t\treturn 'hey';\n\t\t\n\t}\n\tfunction thisaddress()public view returns(address){\n\t\treturn address(this);\n\t}\n\t//deposit\n\t//approve and transferFrom\n\tfunction app(uint256 _amount) public {\n\t\tHCtokenAddress.approve(address(this), _amount);\n\t}\n\n\tfunction depositTokens(address _userAddress,uint256 _amount,address tokenTypeAddress) public {\n\t\tuint256 userBal;\n\t\tuserBal = showTokenBal(msg.sender);\n\t\trequire(userBal >= _amount);\n\t\t// HCtokenAddress.approve(address(this),_amount);\n\t\tHCtokenAddress.transferFrom(msg.sender, address(this), _amount);\n\t\t// if(userDepositBoolean[msg.sender][tokenTypeAddress] == true){\n\t\t// \tuserDeposits[msg.sender][tokenTypeAddress] = userDeposits[msg.sender][tokenTypeAddress] + _amount;\n\t\t// }\n\t\t// else {\n\t\t// \tuserDepositBoolean[msg.sender][tokenTypeAddress] = true;\n\t\t// \tuserDeposits[msg.sender][tokenTypeAddress] = userDeposits[msg.sender][tokenTypeAddress] + _amount;\n\t\t// }\n\t\temit depositEvent(msg.sender, _amount);\n\n\t}\n\t//token contract will approve\n\tfunction withdrawToken(uint _amount,address tokenTypeAddress) public returns(bool) {\n\t\tif(userDepositBoolean[msg.sender][tokenTypeAddress] == true){\n\t\t\tuint256 userBal;\n\t\t\tuserBal = showTokenBal(msg.sender);\n\t\t\trequire(_amount <= userBal);\n\t\t\tHCtokenAddress.transferFrom(address(this),msg.sender,_amount);\n\t\t\treturn true;\n\t\t}\n\t\telse{\n\t\t\treturn false;\n\t\t}\n\t}\n\t//withdraw\n\n}\n//0x7fF01A8833A4c251399dC0161054455b4df9c234\n//approve,function app call from hashCashBackend not working but working from token contract\n//maintain a deposit field ? for withdraw purpose?\n\n",
  "sourcePath": "/home/abhishek/hashcash truffle/contracts/hashCashBackend.sol",
  "compiler": {
    "name": "solc",
    "version": "0.6.2+commit.bacdbe57.Emscripten.clang"
  },
  "schemaVersion": "3.2.0",
  "updatedAt": "2020-06-20T20:34:04.127Z",
  "networkType": "ethereum",
  "devdoc": {
    "methods": {}
  },
  "userdoc": {
    "methods": {}
  }
}