{
  "contractName": "hashCashBackend",
  "abi": [
    {
      "inputs": [
        {
          "internalType": "contract IERC20",
          "name": "_tokenAddress",
          "type": "address"
        }
      ],
      "stateMutability": "nonpayable",
      "type": "constructor"
    },
    {
      "anonymous": false,
      "inputs": [
        {
          "indexed": false,
          "internalType": "address",
          "name": "from",
          "type": "address"
        },
        {
          "indexed": false,
          "internalType": "uint256",
          "name": "tokenAmount",
          "type": "uint256"
        }
      ],
      "name": "depositEvent",
      "type": "event"
    },
    {
      "anonymous": false,
      "inputs": [
        {
          "indexed": false,
          "internalType": "address",
          "name": "from",
          "type": "address"
        },
        {
          "indexed": false,
          "internalType": "uint256",
          "name": "date",
          "type": "uint256"
        }
      ],
      "name": "heey",
      "type": "event"
    },
    {
      "inputs": [
        {
          "internalType": "address",
          "name": "owner",
          "type": "address"
        },
        {
          "internalType": "address",
          "name": "spender",
          "type": "address"
        }
      ],
      "name": "allow",
      "outputs": [
        {
          "internalType": "uint256",
          "name": "",
          "type": "uint256"
        }
      ],
      "stateMutability": "view",
      "type": "function",
      "constant": true
    },
    {
      "inputs": [
        {
          "internalType": "address",
          "name": "spender",
          "type": "address"
        },
        {
          "internalType": "uint256",
          "name": "amount",
          "type": "uint256"
        }
      ],
      "name": "appr",
      "outputs": [
        {
          "internalType": "bool",
          "name": "",
          "type": "bool"
        }
      ],
      "stateMutability": "nonpayable",
      "type": "function"
    },
    {
      "inputs": [
        {
          "internalType": "address",
          "name": "_userAdd",
          "type": "address"
        }
      ],
      "name": "showTokenBal",
      "outputs": [
        {
          "internalType": "uint256",
          "name": "",
          "type": "uint256"
        }
      ],
      "stateMutability": "view",
      "type": "function",
      "constant": true
    },
    {
      "inputs": [],
      "name": "hey",
      "outputs": [
        {
          "internalType": "string",
          "name": "",
          "type": "string"
        }
      ],
      "stateMutability": "nonpayable",
      "type": "function"
    },
    {
      "inputs": [],
      "name": "ty",
      "outputs": [
        {
          "internalType": "string",
          "name": "",
          "type": "string"
        }
      ],
      "stateMutability": "view",
      "type": "function",
      "constant": true
    },
    {
      "inputs": [],
      "name": "thisaddress",
      "outputs": [
        {
          "internalType": "address",
          "name": "",
          "type": "address"
        }
      ],
      "stateMutability": "view",
      "type": "function",
      "constant": true
    },
    {
      "inputs": [
        {
          "internalType": "address",
          "name": "owner",
          "type": "address"
        },
        {
          "internalType": "address",
          "name": "spender",
          "type": "address"
        },
        {
          "internalType": "uint256",
          "name": "_amount",
          "type": "uint256"
        }
      ],
      "name": "appe",
      "outputs": [
        {
          "internalType": "bool",
          "name": "",
          "type": "bool"
        }
      ],
      "stateMutability": "nonpayable",
      "type": "function"
    },
    {
      "inputs": [
        {
          "internalType": "address",
          "name": "owner",
          "type": "address"
        },
        {
          "internalType": "address",
          "name": "spender",
          "type": "address"
        }
      ],
      "name": "hf",
      "outputs": [
        {
          "internalType": "uint256",
          "name": "",
          "type": "uint256"
        }
      ],
      "stateMutability": "view",
      "type": "function",
      "constant": true
    },
    {
      "inputs": [
        {
          "internalType": "address",
          "name": "_userAddress",
          "type": "address"
        },
        {
          "internalType": "uint256",
          "name": "_amount",
          "type": "uint256"
        },
        {
          "internalType": "address",
          "name": "tokenTypeAddress",
          "type": "address"
        }
      ],
      "name": "depositTokens",
      "outputs": [],
      "stateMutability": "nonpayable",
      "type": "function"
    },
    {
      "inputs": [
        {
          "internalType": "uint256",
          "name": "_amount",
          "type": "uint256"
        },
        {
          "internalType": "address",
          "name": "tokenTypeAddress",
          "type": "address"
        }
      ],
      "name": "withdrawToken",
      "outputs": [
        {
          "internalType": "bool",
          "name": "",
          "type": "bool"
        }
      ],
      "stateMutability": "nonpayable",
      "type": "function"
    }
  ],
  "bytecode": "0x608060405234801561001057600080fd5b506040516111033803806111038339818101604052602081101561003357600080fd5b8101908080519060200190929190505050806000806101000a81548173ffffffffffffffffffffffffffffffffffffffff021916908373ffffffffffffffffffffffffffffffffffffffff1602179055505061106f806100946000396000f3fe608060405234801561001057600080fd5b506004361061009e5760003560e01c8063775ad52711610066578063775ad527146102bc5780637963759c14610334578063a1cbe3d8146103ba578063bde2b57314610412578063be4b1772146104955761009e565b8063298e4f79146100a357806337b6fb6c146101115780634e0f33e31461017757806354b2dfef146101fa5780636c762b9514610272575b600080fd5b61010f600480360360608110156100b957600080fd5b81019080803573ffffffffffffffffffffffffffffffffffffffff16906020019092919080359060200190929190803573ffffffffffffffffffffffffffffffffffffffff1690602001909291905050506104fb565b005b61015d6004803603604081101561012757600080fd5b81019080803573ffffffffffffffffffffffffffffffffffffffff1690602001909291908035906020019092919050505061069e565b604051808215151515815260200191505060405180910390f35b61017f6106b5565b6040518080602001828103825283818151815260200191508051906020019080838360005b838110156101bf5780820151818401526020810190506101a4565b50505050905090810190601f1680156101ec5780820380516001836020036101000a031916815260200191505b509250505060405180910390f35b61025c6004803603604081101561021057600080fd5b81019080803573ffffffffffffffffffffffffffffffffffffffff169060200190929190803573ffffffffffffffffffffffffffffffffffffffff169060200190929190505050610821565b6040518082815260200191505060405180910390f35b61027a61093d565b604051808273ffffffffffffffffffffffffffffffffffffffff1673ffffffffffffffffffffffffffffffffffffffff16815260200191505060405180910390f35b61031e600480360360408110156102d257600080fd5b81019080803573ffffffffffffffffffffffffffffffffffffffff169060200190929190803573ffffffffffffffffffffffffffffffffffffffff169060200190929190505050610945565b6040518082815260200191505060405180910390f35b6103a06004803603606081101561034a57600080fd5b81019080803573ffffffffffffffffffffffffffffffffffffffff169060200190929190803573ffffffffffffffffffffffffffffffffffffffff169060200190929190803590602001909291905050506109cc565b604051808215151515815260200191505060405180910390f35b6103fc600480360360208110156103d057600080fd5b81019080803573ffffffffffffffffffffffffffffffffffffffff169060200190929190505050610af3565b6040518082815260200191505060405180910390f35b61041a610bda565b6040518080602001828103825283818151815260200191508051906020019080838360005b8381101561045a57808201518184015260208101905061043f565b50505050905090810190601f1680156104875780820380516001836020036101000a031916815260200191505b509250505060405180910390f35b6104e1600480360360408110156104ab57600080fd5b8101908080359060200190929190803573ffffffffffffffffffffffffffffffffffffffff169060200190929190505050610c82565b604051808215151515815260200191505060405180910390f35b600061050633610af3565b90508281101561051557600080fd5b6000809054906101000a900473ffffffffffffffffffffffffffffffffffffffff1673ffffffffffffffffffffffffffffffffffffffff166323b872dd3330866040518463ffffffff1660e01b8152600401808473ffffffffffffffffffffffffffffffffffffffff1673ffffffffffffffffffffffffffffffffffffffff1681526020018373ffffffffffffffffffffffffffffffffffffffff1673ffffffffffffffffffffffffffffffffffffffff1681526020018281526020019350505050602060405180830381600087803b1580156105f157600080fd5b505af1158015610605573d6000803e3d6000fd5b505050506040513d602081101561061b57600080fd5b8101908080519060200190929190505050507f47170ad76c9bbdb15dfbafd993321119023982de922af38d00684afaac15b8ea3384604051808373ffffffffffffffffffffffffffffffffffffffff1673ffffffffffffffffffffffffffffffffffffffff1681526020018281526020019250505060405180910390a150505050565b60006106ab338484610e61565b6001905092915050565b6060806000809054906101000a900473ffffffffffffffffffffffffffffffffffffffff1673ffffffffffffffffffffffffffffffffffffffff166395d89b416040518163ffffffff1660e01b815260040160006040518083038186803b15801561071f57600080fd5b505afa158015610733573d6000803e3d6000fd5b505050506040513d6000823e3d601f19601f82011682018060405250602081101561075d57600080fd5b810190808051604051939291908464010000000082111561077d57600080fd5b8382019150602082018581111561079357600080fd5b82518660018202830111640100000000821117156107b057600080fd5b8083526020830192505050908051906020019080838360005b838110156107e45780820151818401526020810190506107c9565b50505050905090810190601f1680156108115780820380516001836020036101000a031916815260200191505b5060405250505090508091505090565b6000806000809054906101000a900473ffffffffffffffffffffffffffffffffffffffff1673ffffffffffffffffffffffffffffffffffffffff1663dd62ed3e85856040518363ffffffff1660e01b8152600401808373ffffffffffffffffffffffffffffffffffffffff1673ffffffffffffffffffffffffffffffffffffffff1681526020018273ffffffffffffffffffffffffffffffffffffffff1673ffffffffffffffffffffffffffffffffffffffff1681526020019250505060206040518083038186803b1580156108f657600080fd5b505afa15801561090a573d6000803e3d6000fd5b505050506040513d602081101561092057600080fd5b810190808051906020019092919050505090508091505092915050565b600030905090565b6000600460008473ffffffffffffffffffffffffffffffffffffffff1673ffffffffffffffffffffffffffffffffffffffff16815260200190815260200160002060008373ffffffffffffffffffffffffffffffffffffffff1673ffffffffffffffffffffffffffffffffffffffff16815260200190815260200160002054905092915050565b6000806000809054906101000a900473ffffffffffffffffffffffffffffffffffffffff1673ffffffffffffffffffffffffffffffffffffffff1663e1f21c678686866040518463ffffffff1660e01b8152600401808473ffffffffffffffffffffffffffffffffffffffff1673ffffffffffffffffffffffffffffffffffffffff1681526020018373ffffffffffffffffffffffffffffffffffffffff1673ffffffffffffffffffffffffffffffffffffffff1681526020018281526020019350505050602060405180830381600087803b158015610aab57600080fd5b505af1158015610abf573d6000803e3d6000fd5b505050506040513d6020811015610ad557600080fd5b81019080805190602001909291905050509050809150509392505050565b6000806000809054906101000a900473ffffffffffffffffffffffffffffffffffffffff1673ffffffffffffffffffffffffffffffffffffffff166370a08231846040518263ffffffff1660e01b8152600401808273ffffffffffffffffffffffffffffffffffffffff1673ffffffffffffffffffffffffffffffffffffffff16815260200191505060206040518083038186803b158015610b9457600080fd5b505afa158015610ba8573d6000803e3d6000fd5b505050506040513d6020811015610bbe57600080fd5b8101908080519060200190929190505050905080915050919050565b60607f13e6b91c9b2288e1be3ab7628766d36eb493d1e06dff1cc2790210e517e661593342604051808373ffffffffffffffffffffffffffffffffffffffff1673ffffffffffffffffffffffffffffffffffffffff1681526020018281526020019250505060405180910390a16040518060400160405280600381526020017f6865790000000000000000000000000000000000000000000000000000000000815250905090565b600060011515600260003373ffffffffffffffffffffffffffffffffffffffff1673ffffffffffffffffffffffffffffffffffffffff16815260200190815260200160002060008473ffffffffffffffffffffffffffffffffffffffff1673ffffffffffffffffffffffffffffffffffffffff16815260200190815260200160002060009054906101000a900460ff1615151415610e56576000610d2533610af3565b905080841115610d3457600080fd5b6000809054906101000a900473ffffffffffffffffffffffffffffffffffffffff1673ffffffffffffffffffffffffffffffffffffffff166323b872dd3033876040518463ffffffff1660e01b8152600401808473ffffffffffffffffffffffffffffffffffffffff1673ffffffffffffffffffffffffffffffffffffffff1681526020018373ffffffffffffffffffffffffffffffffffffffff1673ffffffffffffffffffffffffffffffffffffffff1681526020018281526020019350505050602060405180830381600087803b158015610e1057600080fd5b505af1158015610e24573d6000803e3d6000fd5b505050506040513d6020811015610e3a57600080fd5b8101908080519060200190929190505050506001915050610e5b565b600090505b92915050565b600073ffffffffffffffffffffffffffffffffffffffff168373ffffffffffffffffffffffffffffffffffffffff161415610ee7576040517f08c379a00000000000000000000000000000000000000000000000000000000081526004018080602001828103825260248152602001806110166024913960400191505060405180910390fd5b600073ffffffffffffffffffffffffffffffffffffffff168273ffffffffffffffffffffffffffffffffffffffff161415610f6d576040517f08c379a0000000000000000000000000000000000000000000000000000000008152600401808060200182810382526022815260200180610ff46022913960400191505060405180910390fd5b80600460008573ffffffffffffffffffffffffffffffffffffffff1673ffffffffffffffffffffffffffffffffffffffff16815260200190815260200160002060008473ffffffffffffffffffffffffffffffffffffffff1673ffffffffffffffffffffffffffffffffffffffff1681526020019081526020016000208190555050505056fe45524332303a20617070726f766520746f20746865207a65726f206164647265737345524332303a20617070726f76652066726f6d20746865207a65726f2061646472657373a2646970667358221220803145c4b260ecba5e791638f8432a5c16ea9363b17b98bf5ade257b236b8c9564736f6c63430006020033",
  "source": "pragma solidity ^0.6.0;\n\nimport \"@openzeppelin/contracts/token/ERC20/IERC20.sol\";\nimport \"@openzeppelin/contracts/GSN/Context.sol\";\nimport \"@openzeppelin/contracts/token/ERC20/ERC20.sol\";\ncontract hashCashBackend {\n\tIERC20 private HCtokenAddress;\n\t//mapping( userAddress => mapping( tokenAddress => value))\n\tmapping(address => mapping(address => uint256)) userDeposits;\n\t//mapping( userAddress => mapping( tokenAddress => boolean))\n\tmapping(address => mapping(address => bool)) userDepositBoolean;\n\tmapping (address => uint256) private _balances;\n\n\tmapping (address => mapping (address => uint256)) private _allowances;\n\tevent depositEvent(address from,uint256 tokenAmount);\n\tevent heey(address from,uint date);\n\tconstructor (IERC20 _tokenAddress) public {\n\t\tHCtokenAddress = _tokenAddress;\n\t}\n\tfunction allow(address owner, address spender) public view virtual returns (uint256) {\n        return _allowances[owner][spender];\n    }\n\tfunction appr(address spender, uint256 amount) public virtual returns (bool) {\n        _app(msg.sender, spender, amount);\n        return true;\n    }\n\tfunction _app(address owner, address spender, uint256 amount) internal virtual {\n        require(owner != address(0), \"ERC20: approve from the zero address\");\n        require(spender != address(0), \"ERC20: approve to the zero address\");\n\n        _allowances[owner][spender] = amount;\n    }\n\n\tfunction showTokenBal(address _userAdd)public view returns(uint256) {\n\t\tuint256 a;\n\t\ta = HCtokenAddress.balanceOf(_userAdd);\n\t\treturn a;\n\t}\n\tfunction hey() public returns(string memory){\n\t\temit heey(msg.sender,now);\n\n\t\treturn 'hey';\n\t\t\n\t}\n\tfunction ty() public view returns (string memory) {\n\t\tstring memory bv;\n\t\tbv = HCtokenAddress.symbol();\n\t\treturn bv;\n\t}\n\tfunction thisaddress() public view returns(address){\n\t\treturn address(this);\n\t}\n\t//deposit\n\t//approve and transferFrom\n\tfunction appe(address owner,address spender,uint256 _amount) public returns(bool) {\n\t\tbool status;\n\t\tstatus=HCtokenAddress.approve(owner,spender, _amount);\n\t\treturn status;\n\t}\n\tfunction hf(address owner, address spender) public view virtual returns (uint256) {\n\t\tuint256 b;\n        b=HCtokenAddress.allowance(owner,spender);\n\t\treturn b;\n    }\n\tfunction depositTokens(address _userAddress,uint256 _amount,address tokenTypeAddress) public {\n\t\tuint256 userBal;\n\t\tuserBal = showTokenBal(msg.sender);\n\t\trequire(userBal >= _amount);\n\t\t// HCtokenAddress.approve(address(this),_amount);\n\t\tHCtokenAddress.transferFrom(msg.sender, address(this), _amount);\n\t\t// if(userDepositBoolean[msg.sender][tokenTypeAddress] == true){\n\t\t// \tuserDeposits[msg.sender][tokenTypeAddress] = userDeposits[msg.sender][tokenTypeAddress] + _amount;\n\t\t// }\n\t\t// else {\n\t\t// \tuserDepositBoolean[msg.sender][tokenTypeAddress] = true;\n\t\t// \tuserDeposits[msg.sender][tokenTypeAddress] = userDeposits[msg.sender][tokenTypeAddress] + _amount;\n\t\t// }\n\t\temit depositEvent(msg.sender, _amount);\n\n\t}\n\t//token contract will approve\n\tfunction withdrawToken(uint _amount,address tokenTypeAddress) public returns(bool) {\n\t\tif(userDepositBoolean[msg.sender][tokenTypeAddress] == true){\n\t\t\tuint256 userBal;\n\t\t\tuserBal = showTokenBal(msg.sender);\n\t\t\trequire(_amount <= userBal);\n\t\t\tHCtokenAddress.transferFrom(address(this),msg.sender,_amount);\n\t\t\treturn true;\n\t\t}\n\t\telse{\n\t\t\treturn false;\n\t\t}\n\t}\n\t//withdraw\n\n}\n//0x7fF01A8833A4c251399dC0161054455b4df9c234\n//approve,function app call from hashCashBackend not working but working from token contract\n//maintain a deposit field ? for withdraw purpose?\n\n",
  "sourcePath": "/home/abhishek/hashcash truffle/contracts/hashCashBackend.sol",
  "compiler": {
    "name": "solc",
    "version": "0.6.2+commit.bacdbe57.Emscripten.clang"
  },
  "schemaVersion": "3.2.0",
  "updatedAt": "2020-06-22T22:05:00.071Z",
  "networkType": "ethereum",
  "devdoc": {
    "methods": {}
  },
  "userdoc": {
    "methods": {}
  }
}